:020000040800F2
:100000006815002029020008650200086702000840
:10001000690200086B0200086D0200080000000081
:100020000000000000000000000000006F02000857
:100030007102000800000000730200087502000849
:1000400077020008770200087702000877020008AC
:10005000770200087702000877020008770200089C
:10006000770200087702000877020008770200088C
:10007000770200087702000877020008770200087C
:10008000770200087702000877020008770200086C
:10009000770200087702000877020008770200085C
:1000A000770200087702000877020008770200084C
:1000B000770200087702000877020008770200083C
:1000C000770200087702000877020008770200082C
:1000D000770200087702000877020008770200081C
:1000E000770200087702000877020008770200080C
:1000F00077020008770200087702000877020008FC
:1001000077020008770200087702000877020008EB
:1001100077020008770200087702000877020008DB
:1001200077020008770200087702000877020008CB
:1001300077020008770200087702000877020008BB
:1001400077020008770200087702000877020008AB
:10015000770200087702000877020008770200089B
:10016000770200087702000877020008770200088B
:1001700077020008770200087702000800000000FC
:10018000770200087702000800F002F800F03CF85F
:100190000AA090E8000C82448344AAF10107DA45E2
:1001A00001D100F031F8AFF2090EBAE80F0013F0F8
:1001B000010F18BFFB1A43F0010318477404000035
:1001C00094040000103A24BF78C878C1FAD85207C6
:1001D00024BF30C830C144BF04680C6070470000C1
:1001E0000023002400250026103A28BF78C1FBD840
:1001F000520728BF30C148BF0B6070471FB500F0E1
:1002000011FA1FBD10B510BD00F053F81146FFF7ED
:10021000F5FF00F0B7F900F071F803B4FFF7F2FF53
:1002200003BC00F079F8000016481749174B9942B3
:100230003CBF50F8042B41F8042BF8D314494FF07D
:1002400000028B4238BF43F8042BFAD3DFF8440096
:10025000016841F470010160BFF34F8FBFF36F8FEE
:100260000D480047FEE7FEE7FEE7FEE7FEE7FEE794
:10027000FEE7FEE7FEE7FEE708480949094A0A4BA0
:100280007047000050060008000000200400002015
:100290006815002088ED00E0890100086800002052
:1002A0006815002068050020680500207047704729
:1002B0007047754600F02CF8AE4605006946534677
:1002C00020F00700854618B020B5FFF7D5FFBDE840
:1002D00020404FF000064FF000074FF000084FF0AD
:1002E000000B21F00701AC46ACE8C009ACE8C0093E
:1002F000ACE8C009ACE8C0098D46704710B50446AB
:10030000AFF300802046BDE81040FFF786BF000035
:10031000004870470400002001491820ABBEFEE7EA
:100320002600020070470000B4EEE00AF1EE10FA79
:1003300000DC07E0B4EEC10AF1EE10FA0DDCB0EE1D
:10034000410A0AE0F4EEC10AF1EE10FA02DCB0EE66
:10035000410A02E0B0EE600AFFE770472548C06C32
:1003600040F012002349C8642348006820F03000A0
:10037000214908600846006840F0100008601E48E7
:100380000830006820F030001B490831086008463A
:10039000006840F030000860081F006820F004008A
:1003A000091F086014480C30006820F03000124922
:1003B0000C3108601148006820F440300F49086093
:1003C0000846006840F4803008600846806820F4E1
:1003D000403088600846806840F4403088600846B5
:1003E000406820F4807048600846C06820F44030BF
:1003F000C860704700100240000400480010004828
:100400005E49096821F007015C4A116011460968DC
:1004100041F0020111605A49096841F48071584A5B
:10042000116000BF5649096801F480610029F9D0C4
:1004300010205349496821F0F851514A5160114642
:10044000496841EA006151601146096821F08071F4
:10045000116000BF4A49096801F00071B1F1007FE5
:10046000F8D04749C96821F00301454AD1601146D7
:10047000C96841F00201D1601146C96821F4FE410A
:1004800041F4A051D1601146C96821F0700141F0DA
:100490001001D1601146C96821F0C061D1601146D8
:1004A000C96841F08071D1601146096841F08071DE
:1004B000116000BF3249096801F000710029F9D0CC
:1004C0002F49896821F003012D4A916011468968FE
:1004D00041F00301916000BF2949896801F00C01D6
:1004E0000C29F9D12649896821F0F001244A91604C
:1004F0001146896821F4E06191601146896821F410
:10050000605191601146096821F08061116000BF5F
:100510001B49096801F08061B1F1806FF8D018497A
:10052000096921F4FE41164A11611146096941F435
:10053000C05111611146096941F400311161114640
:10054000096941F4803111611146096841F0806107
:10055000116000BF0A49096801F080610029F9D0E3
:1005600007498831096821F44001054AC2F888101A
:100570001146096E41F400111166704700200240D7
:1005800000100240FFF73CFFFFF7E8FE9FED211A45
:10059000DFED210A9FED210AFFF7C6FE204880ED1E
:1005A000000A9FED1D1ADFED1B0A9FED1C0AFFF7E5
:1005B000BBFE1B4880ED000A9FED181ADFED160AFE
:1005C0009FED140AFFF7B0FE154880ED000A9FED7D
:1005D000121ADFED120A9FED0F0AFFF7A5FE104871
:1005E00080ED000A9FED0D1ADFED0A0A9FED0A0A61
:1005F000FFF79AFE0A4880ED000A9FED061ADFED2C
:10060000070A9FED050AFFF78FFE054880ED000AF7
:1006100000BFFEE7B81E55C07B140E407B148E3F12
:10062000000000204FF04070E1EE100A704700001B
:10063000500600080000002004000000C40100086B
:10064000540600080400002064150000E0010008C2
:0406500000000000A6
:040000050800018965
:00000001FF
